:0300000002062EC7
:0C062E00787FE4F6D8FD75812002067587
:1007E6000FDFE1E3E4E6E7E9EAEBECEDEEEFF0F14B
:1007F600F2F3F3F4F5F5F6F6F7F7F8F8F9F9F9FA8E
:10080600FAFAFBFBFBFBFCFF9C7638C95BC1136F56
:1008160097C4D0DECDB3955E28DB8933CB61E86E15
:0E082600E65BCC3095EE459AE53073B4EE2AD1
:0B000E0001083CC10202090000C18093
:0E089900AE071FEE60072000FDD20080F322A4
:100834000B12084A1B7F1012084A7F1212084A7FC3
:060844001012084A7F12A9
:10084A00AE07AC03AF05C2028E0EEE9007E993F530
:10085A008CE50E90081093F58AD28C120899C28CF6
:05086A00AF0402089933
:06079600E4F512FD7F05F1
:10079C00D202EF24F4F50BED3395E0C36480948022
:1007AC005009EDF404F50CD20180048D0CC20185C6
:1007BC000B0D850D8C758AFFD28CEB75F03CA42447
:1007CC00ECF5082000FDD200C28C7508132000FD4A
:0A07DC00D20075083CAF1202089924
:10001E00438911D2AFD2A9D2AB758DED758B54D267
:10002E008E7512017B017D087F0112079CE4F5128B
:10003E007DFA7F0612079C120796E4F5127DFE7F6D
:10004E000312079CE4F512FDFF12079C7512017F47
:10005E000412079CE4F5127D057F0312079CE4F55C
:10006E00127DF97F0912079CE4F5127DFF7F0312C2
:10007E00079CE4F512FD7F0112079CE4F5127DFB4F
:10008E007F0712079CE4F5127DFE7F0312079C7515
:10009E001201E4FD7F0412079CE4F5127D027F033A
:1000AE0012079CE4F512FD7F0412079C7512017D68
:1000BE00FE7F0212079CE4F5127DFA7F0712079C61
:1000CE00E4F5127DFC7F0412079C751201E4FD7F9E
:1000DE000312079CE4F5127DF77F0912079CE4F5E5
:1000EE00127F0912079C120796E4F5127DFE7F031C
:1000FE0012079CE4F5127DF77F0912079CE4F512B6
:10010E00FD7F0112079C7512017F0412079C751268
:10011E00017D077F0212079C7512017DFC7F05127F
:10012E00079CE4F5127D077F0312079CE4F5127D10
:10013E00FB7F0912079C751201E4FDFF12079CE478
:10014E00F5127DFB7F0712079CE4F5127D057F01FA
:10015E0012079CE4F5127DFB7F0712079C1207968F
:10016E007512017DF87F0912079C751201E4FDFFDF
:10017E0012079CE4F5127D067F0212079CE4F5122D
:10018E007DFF7F0512079CE4F5127DFC7F071207A9
:10019E009CE4F5127D067F0212079C7512017DF814
:1001AE007F0912079C751201E4FDFF12079C751260
:1001BE00020B7D09E4FF12079CE4FB7D047F1712FE
:1001CE00084A7D027F0B1208457F1212084A7F10E3
:1001DE0012084A7D047F1212084A7F0912084A7DCE
:1001EE00027F0E12084A7B027F0B12084AE4F512B8
:1001FE001BFD7F0512079CE4F5127F0512079CE498
:10020E00F5120B7F0612079CE4F5127DFF7F041298
:10021E00079C7512027DF77F0912079CE4FB7D0295
:10022E007F1212084A7F0B12084A7F0E12084A7F6D
:10023E000E12084A7D047F1212084A7D027F0E12AA
:10024E00084A7F0E12084A7B027D047F0B12084A71
:10025E00E4F5121B1D7F0312079CE4F5127F0312B7
:10026E00079C751201E4FD7F0512079C7512017F34
:10027E000412079C7512020B7DF77F0912079CE48E
:10028E00FB7D017F121208450D7F121208457F1566
:10029E001208457F0B12084A7F0E12084A1D7F1561
:1002AE001208450D7F121208451D7F121208450DCA
:1002BE007F1212084A1D7F1012084A7F0E12084A3A
:1002CE000D7F0B12084A7F0E12084A7F1A12084A37
:1002DE007F1A12084A7B027F1A12084AE4F5120DA1
:1002EE007F0212079CE4F512FD7F0612079C751221
:1002FE00067D09E4FF12079CE4FB7D027F1A1208BB
:10030E004A7F1C12084A1D7F1A12084A0D7F1A12C4
:10031E00084A1D7F1A12084A0D7F1A12084A1D7FBD
:10032E001C12084A7F1A12084A7B020D7F17120808
:10033E004AE4FB1D7F0912084A7F0612084A7F090C
:10034E0012084A7F0912084A7F0912084A7F0612CC
:10035E00084A7F0912084A7F0912084A0D7F0612C1
:10036E00084A7F0412084A7F0912084A7F0B1208B6
:10037E004A7F0912084A7F0612084A7F0912084A64
:10038E007F0B12084A7F0912084A7B027F06120869
:10039E004AE4FB7F0B12084A1D7F0E12084A7F0BA0
:1003AE0012084A7F0B12084A7F0E12084A0D7F0B65
:1003BE0012084A1D7F0B12084A7F0B12084A0D7F46
:1003CE000912084A7F0612084A7F0912084A7F0B53
:1003DE0012084A7F0912084A7F0612084A7F09123C
:1003EE00084A7F0B12084A7B067F0B12084AE4FB71
:1003FE007F0912084A7B027F0912084AE4FB1D7F1F
:10040E000B12084A7F0912084A7B047D047F0412EE
:10041E00084AE4FB7D027F0612084A7D047F09121A
:10042E00084A7D027F0612084A7B047D047F0B1268
:10043E00084AE4FB7D017F0212084A7B027F02120A
:10044E00084AE4FB7F0E12084A7F0E1208457F12FF
:10045E0012084A0D7F1012084A7F1012084A1D7F9B
:10046E001212084A7F1012084A0D1208431D7F10FF
:10047E0012084A7F1012084A0D7F0E12084A7F0D8D
:10048E0012084A7F0B1208457F1012084A7F0E127F
:10049E00084A1D7F1712084A7F0E12084A0B7F1258
:1004AE0012084A1B7F1012084A7F0E12084A7F104C
:1004BE001208347F1012084A7F0E12084A0D7F1060
:1004CE0012084A0B1D7F1212084A1B1208437F1096
:1004DE0012084A7F0E12084A7F0E1208340D7F0E44
:1004EE0012084A7F0B1208407F0B12084A7F0E1229
:1004FE00084A1D1208437F1012084A7F0E12084A3E
:10050E007B020D7F0B12084A7512011B7DFD7F04C5
:10051E0012079C120796E4F5127DFF7F0212079CCC
:10052E00E4F5120B1D7F0512079CE4F5127DF87F92
:10053E000912079CE4FB7D027F0D12084A7F06120A
:10054E00084A1D7F0B12084A7F0B12084A7F0B12B6
:10055E00084A7F0B12084A0D7F1212084A7F0E12AC
:10056E00084A1D7F1012084A7F0E12084A0D7F0B93
:10057E0012084A7F0912084A7F0612084A1D7F098F
:10058E0012084A7F0912084A0D7F0B12084A7F0B88
:10059E001208451D7F1012084A7F1012084A7F0E5E
:1005AE0012084A7F0E12084A7F0D12084A7F0D125A
:1005BE00084A7F0912084A7F0B12084A0D7F0E1255
:1005CE00084A7F0B1208457F1212084A1D7F10122F
:1005DE00084A7F0B12084A7F0E12084A7F0E120835
:1005EE004A7F0E12084A7F1012084A7F0E12084ADE
:1005FE007F1012084A0D7F0E12084A7F0B12084513
:10060E007F1212084A1D7F121208457F12120845EA
:10061E001208390D7F0E12084A7F0B12084A80FE0F
:03000B0002086F79
:10086F00C0E0C083C082300208850D8C758AFF807E
:10087F0010E50E9007E993F58CE50E90081093F5AF
:0A088F008AB297D082D083D0E03205
:03001B000206BA20
:1006BA00C0E0C0F0C0D075D000C000C004C005C002
:1006CA0006C007758DED758B54050AE50A7002059B
:1006DA000930022DAF0C7E00AC09300113FD120760
:1006EA002FAD087C00120741C3E50B9FF50D801161
:1006FA00AD0A12072FAD087C00120741E50B2FF552
:10070A000DD3E50A9508E5099400400875090075B6
:10071A000A00C200D007D006D005D004D000D0D03D
:05072A00D0F0D0E03228
:10063A0002001EE493A3F8E493A34003F68001F2B8
:10064A0008DFF48029E493A3F85407240CC8C333C1
:10065A00C4540F4420C8834004F456800146F6DF90
:10066A00E4800B010204081020408090000EE47E12
:10067A00019360BCA3FF543F30E509541FFEE49385
:10068A00A360010ECF54C025E060A840B8E493A34C
:10069A00FAE493A3F8E493A3C8C582C8CAC583CA77
:1006AA00F0A3C8C582C8CAC583CADFE9DEE780BE2F
:0100190000E6
:10072F00EF8DF0A4A8F0CF8CF0A428CE8DF0A42EDE
:02073F00FE2298
:10074100BC000BBE0029EF8DF084FFADF022E4CC9C
:10075100F875F008EF2FFFEE33FEEC33FCEE9DEC65
:10076100984005FCEE9DFE0FD5F0E9E4CEFD22EDAB
:10077100F8F5F0EE8420D21CFEADF075F008EF2FF5
:10078100FFED33FD4007985006D5F0F222C398FDE6
:050791000FD5F0EA2283
:00000001FF
